{
	"_format": "hh-sol-artifact-1",
	"contractName": "Voting",
	"sourceName": "contracts/Voting.sol",
	"abi": [
		{
			"anonymous": false,
			"inputs": [
				{
					"indexed": false,
					"internalType": "address",
					"name": "candidate",
					"type": "address"
				},
				{
					"indexed": false,
					"internalType": "string",
					"name": "message",
					"type": "string"
				}
			],
			"name": "candidateAddedEvent",
			"type": "event"
		},
		{
			"anonymous": false,
			"inputs": [
				{
					"indexed": false,
					"internalType": "string",
					"name": "message",
					"type": "string"
				}
			],
			"name": "electionEndEvent",
			"type": "event"
		},
		{
			"anonymous": false,
			"inputs": [
				{
					"indexed": false,
					"internalType": "string",
					"name": "message",
					"type": "string"
				}
			],
			"name": "electionStartEvent",
			"type": "event"
		},
		{
			"anonymous": false,
			"inputs": [
				{
					"indexed": false,
					"internalType": "address",
					"name": "voter",
					"type": "address"
				},
				{
					"indexed": false,
					"internalType": "string",
					"name": "message",
					"type": "string"
				}
			],
			"name": "voterAddedEvent",
			"type": "event"
		},
		{
			"anonymous": false,
			"inputs": [
				{
					"indexed": false,
					"internalType": "address",
					"name": "voter",
					"type": "address"
				},
				{
					"indexed": false,
					"internalType": "string",
					"name": "message",
					"type": "string"
				}
			],
			"name": "voterVotedEvent",
			"type": "event"
		},
		{
			"inputs": [
				{
					"internalType": "address",
					"name": "_organizer",
					"type": "address"
				},
				{
					"internalType": "uint256",
					"name": "_id",
					"type": "uint256"
				}
			],
			"name": "addOrganizer",
			"outputs": [],
			"stateMutability": "nonpayable",
			"type": "function"
		},
		{
			"inputs": [
				{
					"internalType": "address",
					"name": "_organizer",
					"type": "address"
				},
				{
					"internalType": "uint256",
					"name": "_id",
					"type": "uint256"
				}
			],
			"name": "checkStatusOfElection",
			"outputs": [
				{
					"internalType": "bool",
					"name": "started",
					"type": "bool"
				},
				{
					"internalType": "bool",
					"name": "ended",
					"type": "bool"
				}
			],
			"stateMutability": "view",
			"type": "function"
		},
		{
			"inputs": [
				{
					"internalType": "address",
					"name": "_organizer",
					"type": "address"
				},
				{
					"internalType": "uint256",
					"name": "_id",
					"type": "uint256"
				},
				{
					"internalType": "uint256",
					"name": "_index",
					"type": "uint256"
				}
			],
			"name": "displayCandidateResults",
			"outputs": [
				{
					"internalType": "string",
					"name": "candidateFullName",
					"type": "string"
				},
				{
					"internalType": "string",
					"name": "candidateParty",
					"type": "string"
				},
				{
					"internalType": "string",
					"name": "candidatePosition",
					"type": "string"
				},
				{
					"internalType": "string",
					"name": "candidateSymbol",
					"type": "string"
				},
				{
					"internalType": "string",
					"name": "candidateElectionArea",
					"type": "string"
				},
				{
					"internalType": "address",
					"name": "candidateAddress",
					"type": "address"
				},
				{
					"internalType": "uint256",
					"name": "votesReceived",
					"type": "uint256"
				}
			],
			"stateMutability": "view",
			"type": "function"
		},
		{
			"inputs": [
				{
					"internalType": "address",
					"name": "_organizer",
					"type": "address"
				},
				{
					"internalType": "uint256",
					"name": "_id",
					"type": "uint256"
				}
			],
			"name": "endVoting",
			"outputs": [],
			"stateMutability": "nonpayable",
			"type": "function"
		},
		{
			"inputs": [
				{
					"internalType": "address",
					"name": "",
					"type": "address"
				},
				{
					"internalType": "uint256",
					"name": "",
					"type": "uint256"
				}
			],
			"name": "organizerElections",
			"outputs": [
				{
					"internalType": "uint256",
					"name": "id",
					"type": "uint256"
				},
				{
					"internalType": "address",
					"name": "organizerAddress",
					"type": "address"
				},
				{
					"internalType": "bool",
					"name": "electionStarted",
					"type": "bool"
				},
				{
					"internalType": "bool",
					"name": "electionEnded",
					"type": "bool"
				}
			],
			"stateMutability": "view",
			"type": "function"
		},
		{
			"inputs": [
				{
					"internalType": "string",
					"name": "_username",
					"type": "string"
				},
				{
					"internalType": "string",
					"name": "_fullName",
					"type": "string"
				},
				{
					"internalType": "string",
					"name": "_party",
					"type": "string"
				},
				{
					"internalType": "string",
					"name": "_position",
					"type": "string"
				},
				{
					"internalType": "uint256",
					"name": "_age",
					"type": "uint256"
				},
				{
					"internalType": "address",
					"name": "_address",
					"type": "address"
				},
				{
					"internalType": "string",
					"name": "_symbol",
					"type": "string"
				},
				{
					"internalType": "string",
					"name": "_electionArea",
					"type": "string"
				},
				{
					"internalType": "address",
					"name": "_organizer",
					"type": "address"
				},
				{
					"internalType": "uint256",
					"name": "_id",
					"type": "uint256"
				}
			],
			"name": "setCandidate",
			"outputs": [],
			"stateMutability": "nonpayable",
			"type": "function"
		},
		{
			"inputs": [
				{
					"internalType": "string",
					"name": "_username",
					"type": "string"
				},
				{
					"internalType": "string",
					"name": "_firstName",
					"type": "string"
				},
				{
					"internalType": "string",
					"name": "_lastName",
					"type": "string"
				},
				{
					"internalType": "string",
					"name": "_email",
					"type": "string"
				},
				{
					"internalType": "string",
					"name": "_mobile",
					"type": "string"
				},
				{
					"internalType": "string",
					"name": "_location",
					"type": "string"
				},
				{
					"internalType": "string",
					"name": "_profile",
					"type": "string"
				},
				{
					"internalType": "address",
					"name": "_address",
					"type": "address"
				},
				{
					"internalType": "address",
					"name": "_organizer",
					"type": "address"
				},
				{
					"internalType": "uint256",
					"name": "_id",
					"type": "uint256"
				}
			],
			"name": "setVoter",
			"outputs": [],
			"stateMutability": "nonpayable",
			"type": "function"
		},
		{
			"inputs": [
				{
					"internalType": "address",
					"name": "_organizer",
					"type": "address"
				},
				{
					"internalType": "uint256",
					"name": "_id",
					"type": "uint256"
				}
			],
			"name": "startVoting",
			"outputs": [],
			"stateMutability": "nonpayable",
			"type": "function"
		},
		{
			"inputs": [
				{
					"internalType": "address",
					"name": "_candidateAddress",
					"type": "address"
				},
				{
					"internalType": "address",
					"name": "_organizer",
					"type": "address"
				},
				{
					"internalType": "address",
					"name": "_voter",
					"type": "address"
				},
				{
					"internalType": "uint256",
					"name": "_id",
					"type": "uint256"
				}
			],
			"name": "voteTo",
			"outputs": [],
			"stateMutability": "nonpayable",
			"type": "function"
		}
	],
	"bytecode": "0x6080604052600160005534801561001557600080fd5b50612dae806100256000396000f3fe608060405234801561001057600080fd5b50600436106100935760003560e01c806356580a171161006657806356580a171461010857806356b0b93a14610124578063ce4cad6c1461015a578063f5ed76271461018b578063f9c64fcf146101be57610093565b80630e1cc809146100985780632d9375a3146100b457806350326447146100d057806350e00834146100ec575b600080fd5b6100b260048036038101906100ad9190611d60565b6101da565b005b6100ce60048036038101906100c99190611dc7565b6105ca565b005b6100ea60048036038101906100e59190611dc7565b610770565b005b61010660048036038101906101019190611f4d565b6108f0565b005b610122600480360381019061011d9190611dc7565b610d53565b005b61013e600480360381019061013991906120f0565b610de6565b60405161015197969594939291906121e0565b60405180910390f35b610174600480360381019061016f9190611dc7565b611717565b60405161018292919061228d565b60405180910390f35b6101a560048036038101906101a09190611dc7565b6117e7565b6040516101b594939291906122b6565b60405180910390f35b6101d860048036038101906101d391906122fb565b61185e565b005b600160008473ffffffffffffffffffffffffffffffffffffffff1673ffffffffffffffffffffffffffffffffffffffff168152602001908152602001600020600082815260200190815260200160002060090160009054906101000a900460ff1661027a576040517f08c379a0000000000000000000000000000000000000000000000000000000008152600401610271906124ce565b60405180910390fd5b6000600160008573ffffffffffffffffffffffffffffffffffffffff1673ffffffffffffffffffffffffffffffffffffffff168152602001908152602001600020600083815260200190815260200160002060080160008473ffffffffffffffffffffffffffffffffffffffff1673ffffffffffffffffffffffffffffffffffffffff16815260200190815260200160002090508060080160149054906101000a900460ff1615610360576040517f08c379a00000000000000000000000000000000000000000000000000000000081526004016103579061253a565b60405180910390fd5b8373ffffffffffffffffffffffffffffffffffffffff168373ffffffffffffffffffffffffffffffffffffffff16036103ce576040517f08c379a00000000000000000000000000000000000000000000000000000000081526004016103c5906125a6565b60405180910390fd5b828160080160006101000a81548173ffffffffffffffffffffffffffffffffffffffff021916908373ffffffffffffffffffffffffffffffffffffffff16021790555060018060008673ffffffffffffffffffffffffffffffffffffffff1673ffffffffffffffffffffffffffffffffffffffff168152602001908152602001600020600084815260200190815260200160002060050160008773ffffffffffffffffffffffffffffffffffffffff1673ffffffffffffffffffffffffffffffffffffffff16815260200190815260200160002060090160008282546104b491906125f5565b9250508190555060018160080160146101000a81548160ff021916908315150217905550600160008573ffffffffffffffffffffffffffffffffffffffff1673ffffffffffffffffffffffffffffffffffffffff1681526020019081526020016000206000838152602001908152602001600020600401839080600181540180825580915050600190039060005260206000200160009091909190916101000a81548173ffffffffffffffffffffffffffffffffffffffff021916908373ffffffffffffffffffffffffffffffffffffffff1602179055507fd8a2a7965bf299b25d73d6c5f8bca4fb79e708af7b536dd19390d08298688704336040516105bb9190612675565b60405180910390a15050505050565b8160018060008573ffffffffffffffffffffffffffffffffffffffff1673ffffffffffffffffffffffffffffffffffffffff168152602001908152602001600020600084815260200190815260200160002060090160006101000a81548160ff02191690831515021790555082600160008573ffffffffffffffffffffffffffffffffffffffff1673ffffffffffffffffffffffffffffffffffffffff168152602001908152602001600020600084815260200190815260200160002060010160006101000a81548173ffffffffffffffffffffffffffffffffffffffff021916908373ffffffffffffffffffffffffffffffffffffffff1602179055507f67fae9a879c30b354aa55e16c99784731ef7dea59043d444b8a21f2bd97458eb6040516106f5906126ef565b60405180910390a18073ffffffffffffffffffffffffffffffffffffffff163373ffffffffffffffffffffffffffffffffffffffff161461076b576040517f08c379a00000000000000000000000000000000000000000000000000000000081526004016107629061275b565b60405180910390fd5b505050565b816000600160008573ffffffffffffffffffffffffffffffffffffffff1673ffffffffffffffffffffffffffffffffffffffff168152602001908152602001600020600084815260200190815260200160002060090160006101000a81548160ff02191690831515021790555060018060008573ffffffffffffffffffffffffffffffffffffffff1673ffffffffffffffffffffffffffffffffffffffff168152602001908152602001600020600084815260200190815260200160002060090160016101000a81548160ff0219169083151502179055507fac066be4ba266cdef1081ce96e356ff525dd9a71d8344ae110b4076ed9e4f035604051610875906127c7565b60405180910390a18073ffffffffffffffffffffffffffffffffffffffff163373ffffffffffffffffffffffffffffffffffffffff16146108eb576040517f08c379a00000000000000000000000000000000000000000000000000000000081526004016108e29061275b565b60405180910390fd5b505050565b81600160008473ffffffffffffffffffffffffffffffffffffffff1673ffffffffffffffffffffffffffffffffffffffff168152602001908152602001600020600083815260200190815260200160002060070160008573ffffffffffffffffffffffffffffffffffffffff1673ffffffffffffffffffffffffffffffffffffffff16815260200190815260200160002060009054906101000a900460ff16156109cf576040517f08c379a00000000000000000000000000000000000000000000000000000000081526004016109c690612833565b60405180910390fd5b6000600160008573ffffffffffffffffffffffffffffffffffffffff1673ffffffffffffffffffffffffffffffffffffffff168152602001908152602001600020600084815260200190815260200160002060080160008673ffffffffffffffffffffffffffffffffffffffff1673ffffffffffffffffffffffffffffffffffffffff16815260200190815260200160002090506001600054610a7291906125f5565b60008190555060005481600001819055508b816001019081610a949190612a5f565b508a816002019081610aa69190612a5f565b5089816003019081610ab89190612a5f565b5088816004019081610aca9190612a5f565b5087816005019081610adc9190612a5f565b5086816006019081610aee9190612a5f565b5085816007019081610b009190612a5f565b50848160080160006101000a81548173ffffffffffffffffffffffffffffffffffffffff021916908373ffffffffffffffffffffffffffffffffffffffff160217905550600160008573ffffffffffffffffffffffffffffffffffffffff1673ffffffffffffffffffffffffffffffffffffffff1681526020019081526020016000206000848152602001908152602001600020600301859080600181540180825580915050600190039060005260206000200160009091909190916101000a81548173ffffffffffffffffffffffffffffffffffffffff021916908373ffffffffffffffffffffffffffffffffffffffff16021790555060018060008673ffffffffffffffffffffffffffffffffffffffff1673ffffffffffffffffffffffffffffffffffffffff168152602001908152602001600020600085815260200190815260200160002060070160008773ffffffffffffffffffffffffffffffffffffffff1673ffffffffffffffffffffffffffffffffffffffff16815260200190815260200160002060006101000a81548160ff0219169083151502179055507f4d2ef2000bc726bd1bbf8b9e181a44aa2222395cfd3020933771ee6d43980a9985604051610ccf9190612ba3565b60405180910390a1508073ffffffffffffffffffffffffffffffffffffffff163373ffffffffffffffffffffffffffffffffffffffff1614610d46576040517f08c379a0000000000000000000000000000000000000000000000000000000008152600401610d3d9061275b565b60405180910390fd5b5050505050505050505050565b6000600160008473ffffffffffffffffffffffffffffffffffffffff1673ffffffffffffffffffffffffffffffffffffffff1681526020019081526020016000206000838152602001908152602001600020905060008160090160006101000a81548160ff02191690831515021790555060008160090160016101000a81548160ff021916908315150217905550505050565b606080606080606060008089896000600160008e73ffffffffffffffffffffffffffffffffffffffff1673ffffffffffffffffffffffffffffffffffffffff16815260200190815260200160002060008d8152602001908152602001600020600201805480602002602001604051908101604052809291908181526020018280548015610ec857602002820191906000526020600020905b8160009054906101000a900473ffffffffffffffffffffffffffffffffffffffff1673ffffffffffffffffffffffffffffffffffffffff1681526020019060010190808311610e7e575b50505050509050600160008e73ffffffffffffffffffffffffffffffffffffffff1673ffffffffffffffffffffffffffffffffffffffff16815260200190815260200160002060008d81526020019081526020016000206005016000828d81518110610f3757610f36612bd1565b5b602002602001015173ffffffffffffffffffffffffffffffffffffffff1673ffffffffffffffffffffffffffffffffffffffff1681526020019081526020016000206002018054610f8790612882565b80601f0160208091040260200160405190810160405280929190818152602001828054610fb390612882565b80156110005780601f10610fd557610100808354040283529160200191611000565b820191906000526020600020905b815481529060010190602001808311610fe357829003601f168201915b50505050509950600160008e73ffffffffffffffffffffffffffffffffffffffff1673ffffffffffffffffffffffffffffffffffffffff16815260200190815260200160002060008d81526020019081526020016000206005016000828d8151811061106f5761106e612bd1565b5b602002602001015173ffffffffffffffffffffffffffffffffffffffff1673ffffffffffffffffffffffffffffffffffffffff16815260200190815260200160002060030180546110bf90612882565b80601f01602080910402602001604051908101604052809291908181526020018280546110eb90612882565b80156111385780601f1061110d57610100808354040283529160200191611138565b820191906000526020600020905b81548152906001019060200180831161111b57829003601f168201915b50505050509850600160008e73ffffffffffffffffffffffffffffffffffffffff1673ffffffffffffffffffffffffffffffffffffffff16815260200190815260200160002060008d81526020019081526020016000206005016000828d815181106111a7576111a6612bd1565b5b602002602001015173ffffffffffffffffffffffffffffffffffffffff1673ffffffffffffffffffffffffffffffffffffffff16815260200190815260200160002060040180546111f790612882565b80601f016020809104026020016040519081016040528092919081815260200182805461122390612882565b80156112705780601f1061124557610100808354040283529160200191611270565b820191906000526020600020905b81548152906001019060200180831161125357829003601f168201915b50505050509750600160008e73ffffffffffffffffffffffffffffffffffffffff1673ffffffffffffffffffffffffffffffffffffffff16815260200190815260200160002060008d81526020019081526020016000206005016000828d815181106112df576112de612bd1565b5b602002602001015173ffffffffffffffffffffffffffffffffffffffff1673ffffffffffffffffffffffffffffffffffffffff168152602001908152602001600020600701805461132f90612882565b80601f016020809104026020016040519081016040528092919081815260200182805461135b90612882565b80156113a85780601f1061137d576101008083540402835291602001916113a8565b820191906000526020600020905b81548152906001019060200180831161138b57829003601f168201915b50505050509650600160008e73ffffffffffffffffffffffffffffffffffffffff1673ffffffffffffffffffffffffffffffffffffffff16815260200190815260200160002060008d81526020019081526020016000206005016000828d8151811061141757611416612bd1565b5b602002602001015173ffffffffffffffffffffffffffffffffffffffff1673ffffffffffffffffffffffffffffffffffffffff168152602001908152602001600020600801805461146790612882565b80601f016020809104026020016040519081016040528092919081815260200182805461149390612882565b80156114e05780601f106114b5576101008083540402835291602001916114e0565b820191906000526020600020905b8154815290600101906020018083116114c357829003601f168201915b50505050509550600160008e73ffffffffffffffffffffffffffffffffffffffff1673ffffffffffffffffffffffffffffffffffffffff16815260200190815260200160002060008d81526020019081526020016000206005016000828d8151811061154f5761154e612bd1565b5b602002602001015173ffffffffffffffffffffffffffffffffffffffff1673ffffffffffffffffffffffffffffffffffffffff16815260200190815260200160002060060160009054906101000a900473ffffffffffffffffffffffffffffffffffffffff169450600160008e73ffffffffffffffffffffffffffffffffffffffff1673ffffffffffffffffffffffffffffffffffffffff16815260200190815260200160002060008d81526020019081526020016000206005016000828d8151811061161f5761161e612bd1565b5b602002602001015173ffffffffffffffffffffffffffffffffffffffff1673ffffffffffffffffffffffffffffffffffffffff16815260200190815260200160002060090154935050600160008373ffffffffffffffffffffffffffffffffffffffff1673ffffffffffffffffffffffffffffffffffffffff168152602001908152602001600020600082815260200190815260200160002060090160019054906101000a900460ff16611708576040517f08c379a00000000000000000000000000000000000000000000000000000000081526004016116ff90612c4c565b60405180910390fd5b50509397509397509397909450565b600080600160008573ffffffffffffffffffffffffffffffffffffffff1673ffffffffffffffffffffffffffffffffffffffff168152602001908152602001600020600084815260200190815260200160002060090160009054906101000a900460ff169150600160008573ffffffffffffffffffffffffffffffffffffffff1673ffffffffffffffffffffffffffffffffffffffff168152602001908152602001600020600084815260200190815260200160002060090160019054906101000a900460ff1690509250929050565b6001602052816000526040600020602052806000526040600020600091509150508060000154908060010160009054906101000a900473ffffffffffffffffffffffffffffffffffffffff16908060090160009054906101000a900460ff16908060090160019054906101000a900460ff16905084565b81600160008473ffffffffffffffffffffffffffffffffffffffff1673ffffffffffffffffffffffffffffffffffffffff168152602001908152602001600020600083815260200190815260200160002060060160008773ffffffffffffffffffffffffffffffffffffffff1673ffffffffffffffffffffffffffffffffffffffff16815260200190815260200160002060009054906101000a900460ff161561193d576040517f08c379a000000000000000000000000000000000000000000000000000000000815260040161193490612cb8565b60405180910390fd5b6000600160008573ffffffffffffffffffffffffffffffffffffffff1673ffffffffffffffffffffffffffffffffffffffff168152602001908152602001600020600084815260200190815260200160002060050160008873ffffffffffffffffffffffffffffffffffffffff1673ffffffffffffffffffffffffffffffffffffffff168152602001908152602001600020905060016000546119e091906125f5565b60008190555060005481600001819055508b816001019081611a029190612a5f565b508a816002019081611a149190612a5f565b5089816003019081611a269190612a5f565b5088816004019081611a389190612a5f565b50878160050181905550868160060160006101000a81548173ffffffffffffffffffffffffffffffffffffffff021916908373ffffffffffffffffffffffffffffffffffffffff16021790555085816007019081611a969190612a5f565b5084816008019081611aa89190612a5f565b50600160008573ffffffffffffffffffffffffffffffffffffffff1673ffffffffffffffffffffffffffffffffffffffff1681526020019081526020016000206000848152602001908152602001600020600201879080600181540180825580915050600190039060005260206000200160009091909190916101000a81548173ffffffffffffffffffffffffffffffffffffffff021916908373ffffffffffffffffffffffffffffffffffffffff16021790555060018060008673ffffffffffffffffffffffffffffffffffffffff1673ffffffffffffffffffffffffffffffffffffffff168152602001908152602001600020600085815260200190815260200160002060060160008973ffffffffffffffffffffffffffffffffffffffff1673ffffffffffffffffffffffffffffffffffffffff16815260200190815260200160002060006101000a81548160ff0219169083151502179055507f59ab66f5718da61b01fc56d5169fa4ed1479502ff3dab2660143b996ce0dc6c887604051611c349190612d4a565b60405180910390a1508073ffffffffffffffffffffffffffffffffffffffff163373ffffffffffffffffffffffffffffffffffffffff1614611cab576040517f08c379a0000000000000000000000000000000000000000000000000000000008152600401611ca29061275b565b60405180910390fd5b5050505050505050505050565b6000604051905090565b600080fd5b600080fd5b600073ffffffffffffffffffffffffffffffffffffffff82169050919050565b6000611cf782611ccc565b9050919050565b611d0781611cec565b8114611d1257600080fd5b50565b600081359050611d2481611cfe565b92915050565b6000819050919050565b611d3d81611d2a565b8114611d4857600080fd5b50565b600081359050611d5a81611d34565b92915050565b60008060008060808587031215611d7a57611d79611cc2565b5b6000611d8887828801611d15565b9450506020611d9987828801611d15565b9350506040611daa87828801611d15565b9250506060611dbb87828801611d4b565b91505092959194509250565b60008060408385031215611dde57611ddd611cc2565b5b6000611dec85828601611d15565b9250506020611dfd85828601611d4b565b9150509250929050565b600080fd5b600080fd5b6000601f19601f8301169050919050565b7f4e487b7100000000000000000000000000000000000000000000000000000000600052604160045260246000fd5b611e5a82611e11565b810181811067ffffffffffffffff82111715611e7957611e78611e22565b5b80604052505050565b6000611e8c611cb8565b9050611e988282611e51565b919050565b600067ffffffffffffffff821115611eb857611eb7611e22565b5b611ec182611e11565b9050602081019050919050565b82818337600083830152505050565b6000611ef0611eeb84611e9d565b611e82565b905082815260208101848484011115611f0c57611f0b611e0c565b5b611f17848285611ece565b509392505050565b600082601f830112611f3457611f33611e07565b5b8135611f44848260208601611edd565b91505092915050565b6000806000806000806000806000806101408b8d031215611f7157611f70611cc2565b5b60008b013567ffffffffffffffff811115611f8f57611f8e611cc7565b5b611f9b8d828e01611f1f565b9a505060208b013567ffffffffffffffff811115611fbc57611fbb611cc7565b5b611fc88d828e01611f1f565b99505060408b013567ffffffffffffffff811115611fe957611fe8611cc7565b5b611ff58d828e01611f1f565b98505060608b013567ffffffffffffffff81111561201657612015611cc7565b5b6120228d828e01611f1f565b97505060808b013567ffffffffffffffff81111561204357612042611cc7565b5b61204f8d828e01611f1f565b96505060a08b013567ffffffffffffffff8111156120705761206f611cc7565b5b61207c8d828e01611f1f565b95505060c08b013567ffffffffffffffff81111561209d5761209c611cc7565b5b6120a98d828e01611f1f565b94505060e06120ba8d828e01611d15565b9350506101006120cc8d828e01611d15565b9250506101206120de8d828e01611d4b565b9150509295989b9194979a5092959850565b60008060006060848603121561210957612108611cc2565b5b600061211786828701611d15565b935050602061212886828701611d4b565b925050604061213986828701611d4b565b9150509250925092565b600081519050919050565b600082825260208201905092915050565b60005b8381101561217d578082015181840152602081019050612162565b60008484015250505050565b600061219482612143565b61219e818561214e565b93506121ae81856020860161215f565b6121b781611e11565b840191505092915050565b6121cb81611cec565b82525050565b6121da81611d2a565b82525050565b600060e08201905081810360008301526121fa818a612189565b9050818103602083015261220e8189612189565b905081810360408301526122228188612189565b905081810360608301526122368187612189565b9050818103608083015261224a8186612189565b905061225960a08301856121c2565b61226660c08301846121d1565b98975050505050505050565b60008115159050919050565b61228781612272565b82525050565b60006040820190506122a2600083018561227e565b6122af602083018461227e565b9392505050565b60006080820190506122cb60008301876121d1565b6122d860208301866121c2565b6122e5604083018561227e565b6122f2606083018461227e565b95945050505050565b6000806000806000806000806000806101408b8d03121561231f5761231e611cc2565b5b60008b013567ffffffffffffffff81111561233d5761233c611cc7565b5b6123498d828e01611f1f565b9a505060208b013567ffffffffffffffff81111561236a57612369611cc7565b5b6123768d828e01611f1f565b99505060408b013567ffffffffffffffff81111561239757612396611cc7565b5b6123a38d828e01611f1f565b98505060608b013567ffffffffffffffff8111156123c4576123c3611cc7565b5b6123d08d828e01611f1f565b97505060806123e18d828e01611d4b565b96505060a06123f28d828e01611d15565b95505060c08b013567ffffffffffffffff81111561241357612412611cc7565b5b61241f8d828e01611f1f565b94505060e08b013567ffffffffffffffff8111156124405761243f611cc7565b5b61244c8d828e01611f1f565b93505061010061245e8d828e01611d15565b9250506101206124708d828e01611d4b565b9150509295989b9194979a5092959850565b7f456c656374696f6e206e6f7420737461727465642e2e2e212000000000000000600082015250565b60006124b860198361214e565b91506124c382612482565b602082019050919050565b600060208201905081810360008301526124e7816124ab565b9050919050565b7f416c726561647920566f74656400000000000000000000000000000000000000600082015250565b6000612524600d8361214e565b915061252f826124ee565b602082019050919050565b6000602082019050818103600083015261255381612517565b9050919050565b7f4f7267616e697a65722063616e277420766f7465000000000000000000000000600082015250565b600061259060148361214e565b915061259b8261255a565b602082019050919050565b600060208201905081810360008301526125bf81612583565b9050919050565b7f4e487b7100000000000000000000000000000000000000000000000000000000600052601160045260246000fd5b600061260082611d2a565b915061260b83611d2a565b9250828201905080821115612623576126226125c6565b5b92915050565b7f566f7465722068617320766f7465640000000000000000000000000000000000600082015250565b600061265f600f8361214e565b915061266a82612629565b602082019050919050565b600060408201905061268a60008301846121c2565b818103602083015261269b81612652565b905092915050565b7f456c656374696f6e20686173206e6f7720737461727465640000000000000000600082015250565b60006126d960188361214e565b91506126e4826126a3565b602082019050919050565b60006020820190508181036000830152612708816126cc565b9050919050565b7f4f6e6c79206f7267616e697a657220616c6c6f77656400000000000000000000600082015250565b600061274560168361214e565b91506127508261270f565b602082019050919050565b6000602082019050818103600083015261277481612738565b9050919050565b7f456c656374696f6e20686173206e6f7720656e64656400000000000000000000600082015250565b60006127b160168361214e565b91506127bc8261277b565b602082019050919050565b600060208201905081810360008301526127e0816127a4565b9050919050565b7f416c726561647920766f74657220657869737473000000000000000000000000600082015250565b600061281d60148361214e565b9150612828826127e7565b602082019050919050565b6000602082019050818103600083015261284c81612810565b9050919050565b7f4e487b7100000000000000000000000000000000000000000000000000000000600052602260045260246000fd5b6000600282049050600182168061289a57607f821691505b6020821081036128ad576128ac612853565b5b50919050565b60008190508160005260206000209050919050565b60006020601f8301049050919050565b600082821b905092915050565b6000600883026129157fffffffffffffffffffffffffffffffffffffffffffffffffffffffffffffffff826128d8565b61291f86836128d8565b95508019841693508086168417925050509392505050565b6000819050919050565b600061295c61295761295284611d2a565b612937565b611d2a565b9050919050565b6000819050919050565b61297683612941565b61298a61298282612963565b8484546128e5565b825550505050565b600090565b61299f612992565b6129aa81848461296d565b505050565b5b818110156129ce576129c3600082612997565b6001810190506129b0565b5050565b601f821115612a13576129e4816128b3565b6129ed846128c8565b810160208510156129fc578190505b612a10612a08856128c8565b8301826129af565b50505b505050565b600082821c905092915050565b6000612a3660001984600802612a18565b1980831691505092915050565b6000612a4f8383612a25565b9150826002028217905092915050565b612a6882612143565b67ffffffffffffffff811115612a8157612a80611e22565b5b612a8b8254612882565b612a968282856129d2565b600060209050601f831160018114612ac95760008415612ab7578287015190505b612ac18582612a43565b865550612b29565b601f198416612ad7866128b3565b60005b82811015612aff57848901518255600182019150602085019450602081019050612ada565b86831015612b1c5784890151612b18601f891682612a25565b8355505b6001600288020188555050505b505050505050565b7f566f74657220686173206265656e206164646564207375636365737366756c6c60008201527f7900000000000000000000000000000000000000000000000000000000000000602082015250565b6000612b8d60218361214e565b9150612b9882612b31565b604082019050919050565b6000604082019050612bb860008301846121c2565b8181036020830152612bc981612b80565b905092915050565b7f4e487b7100000000000000000000000000000000000000000000000000000000600052603260045260246000fd5b7f456c656374696f6e206e6f7420456e6465642000000000000000000000000000600082015250565b6000612c3660138361214e565b9150612c4182612c00565b602082019050919050565b60006020820190508181036000830152612c6581612c29565b9050919050565b7f416c72656164792063616e646964617465206578697374730000000000000000600082015250565b6000612ca260188361214e565b9150612cad82612c6c565b602082019050919050565b60006020820190508181036000830152612cd181612c95565b9050919050565b7f43616e64696461746520686173206265656e206164646564207375636365737360008201527f66756c6c79000000000000000000000000000000000000000000000000000000602082015250565b6000612d3460258361214e565b9150612d3f82612cd8565b604082019050919050565b6000604082019050612d5f60008301846121c2565b8181036020830152612d7081612d27565b90509291505056fea264697066735822122020ea75ed4217b4a0e7cb4bd4b721859c6877e20291c001a47bed32d67d57941164736f6c63430008130033",
	"linkReferences": {},
	"deployedLinkReferences": {}
}