{
	"_format": "hh-sol-artifact-1",
	"contractName": "Voting",
	"sourceName": "contracts/Voting.sol",
	"abi": [
		{
			"anonymous": false,
			"inputs": [
				{
					"indexed": false,
					"internalType": "address",
					"name": "candidate",
					"type": "address"
				},
				{
					"indexed": false,
					"internalType": "string",
					"name": "message",
					"type": "string"
				}
			],
			"name": "candidateAddedEvent",
			"type": "event"
		},
		{
			"anonymous": false,
			"inputs": [
				{
					"indexed": false,
					"internalType": "string",
					"name": "message",
					"type": "string"
				}
			],
			"name": "electionEndEvent",
			"type": "event"
		},
		{
			"anonymous": false,
			"inputs": [
				{
					"indexed": false,
					"internalType": "string",
					"name": "message",
					"type": "string"
				}
			],
			"name": "electionStartEvent",
			"type": "event"
		},
		{
			"anonymous": false,
			"inputs": [
				{
					"indexed": false,
					"internalType": "address",
					"name": "voter",
					"type": "address"
				},
				{
					"indexed": false,
					"internalType": "string",
					"name": "message",
					"type": "string"
				}
			],
			"name": "voterAddedEvent",
			"type": "event"
		},
		{
			"anonymous": false,
			"inputs": [
				{
					"indexed": false,
					"internalType": "address",
					"name": "voter",
					"type": "address"
				},
				{
					"indexed": false,
					"internalType": "string",
					"name": "message",
					"type": "string"
				}
			],
			"name": "voterVotedEvent",
			"type": "event"
		},
		{
			"inputs": [
				{
					"internalType": "address",
					"name": "_organizer",
					"type": "address"
				},
				{
					"internalType": "uint256",
					"name": "_id",
					"type": "uint256"
				}
			],
			"name": "addOrganizer",
			"outputs": [],
			"stateMutability": "nonpayable",
			"type": "function"
		},
		{
			"inputs": [
				{
					"internalType": "address",
					"name": "_organizer",
					"type": "address"
				},
				{
					"internalType": "uint256",
					"name": "_id",
					"type": "uint256"
				}
			],
			"name": "checkStatusOfElection",
			"outputs": [
				{
					"internalType": "bool",
					"name": "started",
					"type": "bool"
				},
				{
					"internalType": "bool",
					"name": "ended",
					"type": "bool"
				}
			],
			"stateMutability": "view",
			"type": "function"
		},
		{
			"inputs": [
				{
					"internalType": "address",
					"name": "_organizer",
					"type": "address"
				},
				{
					"internalType": "uint256",
					"name": "_id",
					"type": "uint256"
				},
				{
					"internalType": "uint256",
					"name": "_index",
					"type": "uint256"
				}
			],
			"name": "displayCandidateResults",
			"outputs": [
				{
					"internalType": "string",
					"name": "candidateFullName",
					"type": "string"
				},
				{
					"internalType": "string",
					"name": "candidateParty",
					"type": "string"
				},
				{
					"internalType": "string",
					"name": "candidatePosition",
					"type": "string"
				},
				{
					"internalType": "string",
					"name": "candidateSymbol",
					"type": "string"
				},
				{
					"internalType": "string",
					"name": "candidateElectionArea",
					"type": "string"
				},
				{
					"internalType": "address",
					"name": "candidateAddress",
					"type": "address"
				},
				{
					"internalType": "uint256",
					"name": "votesReceived",
					"type": "uint256"
				}
			],
			"stateMutability": "view",
			"type": "function"
		},
		{
			"inputs": [
				{
					"internalType": "address",
					"name": "_organizer",
					"type": "address"
				},
				{
					"internalType": "uint256",
					"name": "_id",
					"type": "uint256"
				}
			],
			"name": "endVoting",
			"outputs": [],
			"stateMutability": "nonpayable",
			"type": "function"
		},
		{
			"inputs": [
				{
					"internalType": "address",
					"name": "",
					"type": "address"
				},
				{
					"internalType": "uint256",
					"name": "",
					"type": "uint256"
				}
			],
			"name": "organizerElections",
			"outputs": [
				{
					"internalType": "uint256",
					"name": "id",
					"type": "uint256"
				},
				{
					"internalType": "address",
					"name": "organizerAddress",
					"type": "address"
				},
				{
					"internalType": "bool",
					"name": "electionStarted",
					"type": "bool"
				},
				{
					"internalType": "bool",
					"name": "electionEnded",
					"type": "bool"
				}
			],
			"stateMutability": "view",
			"type": "function"
		},
		{
			"inputs": [
				{
					"internalType": "string",
					"name": "_username",
					"type": "string"
				},
				{
					"internalType": "string",
					"name": "_fullName",
					"type": "string"
				},
				{
					"internalType": "string",
					"name": "_party",
					"type": "string"
				},
				{
					"internalType": "string",
					"name": "_position",
					"type": "string"
				},
				{
					"internalType": "uint256",
					"name": "_age",
					"type": "uint256"
				},
				{
					"internalType": "address",
					"name": "_address",
					"type": "address"
				},
				{
					"internalType": "string",
					"name": "_symbol",
					"type": "string"
				},
				{
					"internalType": "string",
					"name": "_electionArea",
					"type": "string"
				},
				{
					"internalType": "address",
					"name": "_organizer",
					"type": "address"
				},
				{
					"internalType": "uint256",
					"name": "_id",
					"type": "uint256"
				}
			],
			"name": "setCandidate",
			"outputs": [],
			"stateMutability": "nonpayable",
			"type": "function"
		},
		{
			"inputs": [
				{
					"internalType": "string",
					"name": "_username",
					"type": "string"
				},
				{
					"internalType": "string",
					"name": "_firstName",
					"type": "string"
				},
				{
					"internalType": "string",
					"name": "_lastName",
					"type": "string"
				},
				{
					"internalType": "string",
					"name": "_email",
					"type": "string"
				},
				{
					"internalType": "string",
					"name": "_mobile",
					"type": "string"
				},
				{
					"internalType": "string",
					"name": "_location",
					"type": "string"
				},
				{
					"internalType": "address",
					"name": "_address",
					"type": "address"
				},
				{
					"internalType": "address",
					"name": "_organizer",
					"type": "address"
				},
				{
					"internalType": "uint256",
					"name": "_id",
					"type": "uint256"
				}
			],
			"name": "setVoter",
			"outputs": [],
			"stateMutability": "nonpayable",
			"type": "function"
		},
		{
			"inputs": [
				{
					"internalType": "address",
					"name": "_organizer",
					"type": "address"
				},
				{
					"internalType": "uint256",
					"name": "_id",
					"type": "uint256"
				}
			],
			"name": "startVoting",
			"outputs": [],
			"stateMutability": "nonpayable",
			"type": "function"
		},
		{
			"inputs": [
				{
					"internalType": "address",
					"name": "_candidateAddress",
					"type": "address"
				},
				{
					"internalType": "address",
					"name": "_organizer",
					"type": "address"
				},
				{
					"internalType": "address",
					"name": "_voter",
					"type": "address"
				},
				{
					"internalType": "uint256",
					"name": "_id",
					"type": "uint256"
				}
			],
			"name": "voteTo",
			"outputs": [],
			"stateMutability": "nonpayable",
			"type": "function"
		}
	],
	"bytecode": "0x6080604052600160005534801561001557600080fd5b50612d6a806100256000396000f3fe608060405234801561001057600080fd5b50600436106100935760003560e01c806356b0b93a1161006657806356b0b93a14610108578063b9d9c82e1461013e578063ce4cad6c1461015a578063f5ed76271461018b578063f9c64fcf146101be57610093565b80630e1cc809146100985780632d9375a3146100b457806350326447146100d057806356580a17146100ec575b600080fd5b6100b260048036038101906100ad9190611d4d565b6101da565b005b6100ce60048036038101906100c99190611db4565b6105ca565b005b6100ea60048036038101906100e59190611db4565b610770565b005b61010660048036038101906101019190611db4565b6108f0565b005b610122600480360381019061011d9190611df4565b610983565b6040516101359796959493929190611ef5565b60405180910390f35b610158600480360381019061015391906120bc565b6112b4565b005b610174600480360381019061016f9190611db4565b611704565b604051610182929190612249565b60405180910390f35b6101a560048036038101906101a09190611db4565b6117d4565b6040516101b59493929190612272565b60405180910390f35b6101d860048036038101906101d391906122b7565b61184b565b005b600160008473ffffffffffffffffffffffffffffffffffffffff1673ffffffffffffffffffffffffffffffffffffffff168152602001908152602001600020600082815260200190815260200160002060090160009054906101000a900460ff1661027a576040517f08c379a00000000000000000000000000000000000000000000000000000000081526004016102719061248a565b60405180910390fd5b6000600160008573ffffffffffffffffffffffffffffffffffffffff1673ffffffffffffffffffffffffffffffffffffffff168152602001908152602001600020600083815260200190815260200160002060080160008473ffffffffffffffffffffffffffffffffffffffff1673ffffffffffffffffffffffffffffffffffffffff16815260200190815260200160002090508060070160149054906101000a900460ff1615610360576040517f08c379a0000000000000000000000000000000000000000000000000000000008152600401610357906124f6565b60405180910390fd5b8373ffffffffffffffffffffffffffffffffffffffff168373ffffffffffffffffffffffffffffffffffffffff16036103ce576040517f08c379a00000000000000000000000000000000000000000000000000000000081526004016103c590612562565b60405180910390fd5b828160070160006101000a81548173ffffffffffffffffffffffffffffffffffffffff021916908373ffffffffffffffffffffffffffffffffffffffff16021790555060018060008673ffffffffffffffffffffffffffffffffffffffff1673ffffffffffffffffffffffffffffffffffffffff168152602001908152602001600020600084815260200190815260200160002060050160008773ffffffffffffffffffffffffffffffffffffffff1673ffffffffffffffffffffffffffffffffffffffff16815260200190815260200160002060090160008282546104b491906125b1565b9250508190555060018160070160146101000a81548160ff021916908315150217905550600160008573ffffffffffffffffffffffffffffffffffffffff1673ffffffffffffffffffffffffffffffffffffffff1681526020019081526020016000206000838152602001908152602001600020600401839080600181540180825580915050600190039060005260206000200160009091909190916101000a81548173ffffffffffffffffffffffffffffffffffffffff021916908373ffffffffffffffffffffffffffffffffffffffff1602179055507fd8a2a7965bf299b25d73d6c5f8bca4fb79e708af7b536dd19390d08298688704336040516105bb9190612631565b60405180910390a15050505050565b8160018060008573ffffffffffffffffffffffffffffffffffffffff1673ffffffffffffffffffffffffffffffffffffffff168152602001908152602001600020600084815260200190815260200160002060090160006101000a81548160ff02191690831515021790555082600160008573ffffffffffffffffffffffffffffffffffffffff1673ffffffffffffffffffffffffffffffffffffffff168152602001908152602001600020600084815260200190815260200160002060010160006101000a81548173ffffffffffffffffffffffffffffffffffffffff021916908373ffffffffffffffffffffffffffffffffffffffff1602179055507f67fae9a879c30b354aa55e16c99784731ef7dea59043d444b8a21f2bd97458eb6040516106f5906126ab565b60405180910390a18073ffffffffffffffffffffffffffffffffffffffff163373ffffffffffffffffffffffffffffffffffffffff161461076b576040517f08c379a000000000000000000000000000000000000000000000000000000000815260040161076290612717565b60405180910390fd5b505050565b816000600160008573ffffffffffffffffffffffffffffffffffffffff1673ffffffffffffffffffffffffffffffffffffffff168152602001908152602001600020600084815260200190815260200160002060090160006101000a81548160ff02191690831515021790555060018060008573ffffffffffffffffffffffffffffffffffffffff1673ffffffffffffffffffffffffffffffffffffffff168152602001908152602001600020600084815260200190815260200160002060090160016101000a81548160ff0219169083151502179055507fac066be4ba266cdef1081ce96e356ff525dd9a71d8344ae110b4076ed9e4f03560405161087590612783565b60405180910390a18073ffffffffffffffffffffffffffffffffffffffff163373ffffffffffffffffffffffffffffffffffffffff16146108eb576040517f08c379a00000000000000000000000000000000000000000000000000000000081526004016108e290612717565b60405180910390fd5b505050565b6000600160008473ffffffffffffffffffffffffffffffffffffffff1673ffffffffffffffffffffffffffffffffffffffff1681526020019081526020016000206000838152602001908152602001600020905060008160090160006101000a81548160ff02191690831515021790555060008160090160016101000a81548160ff021916908315150217905550505050565b606080606080606060008089896000600160008e73ffffffffffffffffffffffffffffffffffffffff1673ffffffffffffffffffffffffffffffffffffffff16815260200190815260200160002060008d8152602001908152602001600020600201805480602002602001604051908101604052809291908181526020018280548015610a6557602002820191906000526020600020905b8160009054906101000a900473ffffffffffffffffffffffffffffffffffffffff1673ffffffffffffffffffffffffffffffffffffffff1681526020019060010190808311610a1b575b50505050509050600160008e73ffffffffffffffffffffffffffffffffffffffff1673ffffffffffffffffffffffffffffffffffffffff16815260200190815260200160002060008d81526020019081526020016000206005016000828d81518110610ad457610ad36127a3565b5b602002602001015173ffffffffffffffffffffffffffffffffffffffff1673ffffffffffffffffffffffffffffffffffffffff1681526020019081526020016000206002018054610b2490612801565b80601f0160208091040260200160405190810160405280929190818152602001828054610b5090612801565b8015610b9d5780601f10610b7257610100808354040283529160200191610b9d565b820191906000526020600020905b815481529060010190602001808311610b8057829003601f168201915b50505050509950600160008e73ffffffffffffffffffffffffffffffffffffffff1673ffffffffffffffffffffffffffffffffffffffff16815260200190815260200160002060008d81526020019081526020016000206005016000828d81518110610c0c57610c0b6127a3565b5b602002602001015173ffffffffffffffffffffffffffffffffffffffff1673ffffffffffffffffffffffffffffffffffffffff1681526020019081526020016000206003018054610c5c90612801565b80601f0160208091040260200160405190810160405280929190818152602001828054610c8890612801565b8015610cd55780601f10610caa57610100808354040283529160200191610cd5565b820191906000526020600020905b815481529060010190602001808311610cb857829003601f168201915b50505050509850600160008e73ffffffffffffffffffffffffffffffffffffffff1673ffffffffffffffffffffffffffffffffffffffff16815260200190815260200160002060008d81526020019081526020016000206005016000828d81518110610d4457610d436127a3565b5b602002602001015173ffffffffffffffffffffffffffffffffffffffff1673ffffffffffffffffffffffffffffffffffffffff1681526020019081526020016000206004018054610d9490612801565b80601f0160208091040260200160405190810160405280929190818152602001828054610dc090612801565b8015610e0d5780601f10610de257610100808354040283529160200191610e0d565b820191906000526020600020905b815481529060010190602001808311610df057829003601f168201915b50505050509750600160008e73ffffffffffffffffffffffffffffffffffffffff1673ffffffffffffffffffffffffffffffffffffffff16815260200190815260200160002060008d81526020019081526020016000206005016000828d81518110610e7c57610e7b6127a3565b5b602002602001015173ffffffffffffffffffffffffffffffffffffffff1673ffffffffffffffffffffffffffffffffffffffff1681526020019081526020016000206007018054610ecc90612801565b80601f0160208091040260200160405190810160405280929190818152602001828054610ef890612801565b8015610f455780601f10610f1a57610100808354040283529160200191610f45565b820191906000526020600020905b815481529060010190602001808311610f2857829003601f168201915b50505050509650600160008e73ffffffffffffffffffffffffffffffffffffffff1673ffffffffffffffffffffffffffffffffffffffff16815260200190815260200160002060008d81526020019081526020016000206005016000828d81518110610fb457610fb36127a3565b5b602002602001015173ffffffffffffffffffffffffffffffffffffffff1673ffffffffffffffffffffffffffffffffffffffff168152602001908152602001600020600801805461100490612801565b80601f016020809104026020016040519081016040528092919081815260200182805461103090612801565b801561107d5780601f106110525761010080835404028352916020019161107d565b820191906000526020600020905b81548152906001019060200180831161106057829003601f168201915b50505050509550600160008e73ffffffffffffffffffffffffffffffffffffffff1673ffffffffffffffffffffffffffffffffffffffff16815260200190815260200160002060008d81526020019081526020016000206005016000828d815181106110ec576110eb6127a3565b5b602002602001015173ffffffffffffffffffffffffffffffffffffffff1673ffffffffffffffffffffffffffffffffffffffff16815260200190815260200160002060060160009054906101000a900473ffffffffffffffffffffffffffffffffffffffff169450600160008e73ffffffffffffffffffffffffffffffffffffffff1673ffffffffffffffffffffffffffffffffffffffff16815260200190815260200160002060008d81526020019081526020016000206005016000828d815181106111bc576111bb6127a3565b5b602002602001015173ffffffffffffffffffffffffffffffffffffffff1673ffffffffffffffffffffffffffffffffffffffff16815260200190815260200160002060090154935050600160008373ffffffffffffffffffffffffffffffffffffffff1673ffffffffffffffffffffffffffffffffffffffff168152602001908152602001600020600082815260200190815260200160002060090160019054906101000a900460ff166112a5576040517f08c379a000000000000000000000000000000000000000000000000000000000815260040161129c9061287e565b60405180910390fd5b50509397509397509397909450565b81600160008473ffffffffffffffffffffffffffffffffffffffff1673ffffffffffffffffffffffffffffffffffffffff168152602001908152602001600020600083815260200190815260200160002060070160008573ffffffffffffffffffffffffffffffffffffffff1673ffffffffffffffffffffffffffffffffffffffff16815260200190815260200160002060009054906101000a900460ff1615611393576040517f08c379a000000000000000000000000000000000000000000000000000000000815260040161138a906128ea565b60405180910390fd5b6000600160008573ffffffffffffffffffffffffffffffffffffffff1673ffffffffffffffffffffffffffffffffffffffff168152602001908152602001600020600084815260200190815260200160002060080160008673ffffffffffffffffffffffffffffffffffffffff1673ffffffffffffffffffffffffffffffffffffffff1681526020019081526020016000209050600160005461143691906125b1565b60008190555060005481600001819055508a8160010190816114589190612ab6565b508981600201908161146a9190612ab6565b508881600301908161147c9190612ab6565b508781600401908161148e9190612ab6565b50868160050190816114a09190612ab6565b50858160060190816114b29190612ab6565b50848160070160006101000a81548173ffffffffffffffffffffffffffffffffffffffff021916908373ffffffffffffffffffffffffffffffffffffffff160217905550600160008573ffffffffffffffffffffffffffffffffffffffff1673ffffffffffffffffffffffffffffffffffffffff1681526020019081526020016000206000848152602001908152602001600020600301859080600181540180825580915050600190039060005260206000200160009091909190916101000a81548173ffffffffffffffffffffffffffffffffffffffff021916908373ffffffffffffffffffffffffffffffffffffffff16021790555060018060008673ffffffffffffffffffffffffffffffffffffffff1673ffffffffffffffffffffffffffffffffffffffff168152602001908152602001600020600085815260200190815260200160002060070160008773ffffffffffffffffffffffffffffffffffffffff1673ffffffffffffffffffffffffffffffffffffffff16815260200190815260200160002060006101000a81548160ff0219169083151502179055507f4d2ef2000bc726bd1bbf8b9e181a44aa2222395cfd3020933771ee6d43980a99856040516116819190612bfa565b60405180910390a1508073ffffffffffffffffffffffffffffffffffffffff163373ffffffffffffffffffffffffffffffffffffffff16146116f8576040517f08c379a00000000000000000000000000000000000000000000000000000000081526004016116ef90612717565b60405180910390fd5b50505050505050505050565b600080600160008573ffffffffffffffffffffffffffffffffffffffff1673ffffffffffffffffffffffffffffffffffffffff168152602001908152602001600020600084815260200190815260200160002060090160009054906101000a900460ff169150600160008573ffffffffffffffffffffffffffffffffffffffff1673ffffffffffffffffffffffffffffffffffffffff168152602001908152602001600020600084815260200190815260200160002060090160019054906101000a900460ff1690509250929050565b6001602052816000526040600020602052806000526040600020600091509150508060000154908060010160009054906101000a900473ffffffffffffffffffffffffffffffffffffffff16908060090160009054906101000a900460ff16908060090160019054906101000a900460ff16905084565b81600160008473ffffffffffffffffffffffffffffffffffffffff1673ffffffffffffffffffffffffffffffffffffffff168152602001908152602001600020600083815260200190815260200160002060060160008773ffffffffffffffffffffffffffffffffffffffff1673ffffffffffffffffffffffffffffffffffffffff16815260200190815260200160002060009054906101000a900460ff161561192a576040517f08c379a000000000000000000000000000000000000000000000000000000000815260040161192190612c74565b60405180910390fd5b6000600160008573ffffffffffffffffffffffffffffffffffffffff1673ffffffffffffffffffffffffffffffffffffffff168152602001908152602001600020600084815260200190815260200160002060050160008873ffffffffffffffffffffffffffffffffffffffff1673ffffffffffffffffffffffffffffffffffffffff168152602001908152602001600020905060016000546119cd91906125b1565b60008190555060005481600001819055508b8160010190816119ef9190612ab6565b508a816002019081611a019190612ab6565b5089816003019081611a139190612ab6565b5088816004019081611a259190612ab6565b50878160050181905550868160060160006101000a81548173ffffffffffffffffffffffffffffffffffffffff021916908373ffffffffffffffffffffffffffffffffffffffff16021790555085816007019081611a839190612ab6565b5084816008019081611a959190612ab6565b50600160008573ffffffffffffffffffffffffffffffffffffffff1673ffffffffffffffffffffffffffffffffffffffff1681526020019081526020016000206000848152602001908152602001600020600201879080600181540180825580915050600190039060005260206000200160009091909190916101000a81548173ffffffffffffffffffffffffffffffffffffffff021916908373ffffffffffffffffffffffffffffffffffffffff16021790555060018060008673ffffffffffffffffffffffffffffffffffffffff1673ffffffffffffffffffffffffffffffffffffffff168152602001908152602001600020600085815260200190815260200160002060060160008973ffffffffffffffffffffffffffffffffffffffff1673ffffffffffffffffffffffffffffffffffffffff16815260200190815260200160002060006101000a81548160ff0219169083151502179055507f59ab66f5718da61b01fc56d5169fa4ed1479502ff3dab2660143b996ce0dc6c887604051611c219190612d06565b60405180910390a1508073ffffffffffffffffffffffffffffffffffffffff163373ffffffffffffffffffffffffffffffffffffffff1614611c98576040517f08c379a0000000000000000000000000000000000000000000000000000000008152600401611c8f90612717565b60405180910390fd5b5050505050505050505050565b6000604051905090565b600080fd5b600080fd5b600073ffffffffffffffffffffffffffffffffffffffff82169050919050565b6000611ce482611cb9565b9050919050565b611cf481611cd9565b8114611cff57600080fd5b50565b600081359050611d1181611ceb565b92915050565b6000819050919050565b611d2a81611d17565b8114611d3557600080fd5b50565b600081359050611d4781611d21565b92915050565b60008060008060808587031215611d6757611d66611caf565b5b6000611d7587828801611d02565b9450506020611d8687828801611d02565b9350506040611d9787828801611d02565b9250506060611da887828801611d38565b91505092959194509250565b60008060408385031215611dcb57611dca611caf565b5b6000611dd985828601611d02565b9250506020611dea85828601611d38565b9150509250929050565b600080600060608486031215611e0d57611e0c611caf565b5b6000611e1b86828701611d02565b9350506020611e2c86828701611d38565b9250506040611e3d86828701611d38565b9150509250925092565b600081519050919050565b600082825260208201905092915050565b60005b83811015611e81578082015181840152602081019050611e66565b60008484015250505050565b6000601f19601f8301169050919050565b6000611ea982611e47565b611eb38185611e52565b9350611ec3818560208601611e63565b611ecc81611e8d565b840191505092915050565b611ee081611cd9565b82525050565b611eef81611d17565b82525050565b600060e0820190508181036000830152611f0f818a611e9e565b90508181036020830152611f238189611e9e565b90508181036040830152611f378188611e9e565b90508181036060830152611f4b8187611e9e565b90508181036080830152611f5f8186611e9e565b9050611f6e60a0830185611ed7565b611f7b60c0830184611ee6565b98975050505050505050565b600080fd5b600080fd5b7f4e487b7100000000000000000000000000000000000000000000000000000000600052604160045260246000fd5b611fc982611e8d565b810181811067ffffffffffffffff82111715611fe857611fe7611f91565b5b80604052505050565b6000611ffb611ca5565b90506120078282611fc0565b919050565b600067ffffffffffffffff82111561202757612026611f91565b5b61203082611e8d565b9050602081019050919050565b82818337600083830152505050565b600061205f61205a8461200c565b611ff1565b90508281526020810184848401111561207b5761207a611f8c565b5b61208684828561203d565b509392505050565b600082601f8301126120a3576120a2611f87565b5b81356120b384826020860161204c565b91505092915050565b60008060008060008060008060006101208a8c0312156120df576120de611caf565b5b60008a013567ffffffffffffffff8111156120fd576120fc611cb4565b5b6121098c828d0161208e565b99505060208a013567ffffffffffffffff81111561212a57612129611cb4565b5b6121368c828d0161208e565b98505060408a013567ffffffffffffffff81111561215757612156611cb4565b5b6121638c828d0161208e565b97505060608a013567ffffffffffffffff81111561218457612183611cb4565b5b6121908c828d0161208e565b96505060808a013567ffffffffffffffff8111156121b1576121b0611cb4565b5b6121bd8c828d0161208e565b95505060a08a013567ffffffffffffffff8111156121de576121dd611cb4565b5b6121ea8c828d0161208e565b94505060c06121fb8c828d01611d02565b93505060e061220c8c828d01611d02565b92505061010061221e8c828d01611d38565b9150509295985092959850929598565b60008115159050919050565b6122438161222e565b82525050565b600060408201905061225e600083018561223a565b61226b602083018461223a565b9392505050565b60006080820190506122876000830187611ee6565b6122946020830186611ed7565b6122a1604083018561223a565b6122ae606083018461223a565b95945050505050565b6000806000806000806000806000806101408b8d0312156122db576122da611caf565b5b60008b013567ffffffffffffffff8111156122f9576122f8611cb4565b5b6123058d828e0161208e565b9a505060208b013567ffffffffffffffff81111561232657612325611cb4565b5b6123328d828e0161208e565b99505060408b013567ffffffffffffffff81111561235357612352611cb4565b5b61235f8d828e0161208e565b98505060608b013567ffffffffffffffff8111156123805761237f611cb4565b5b61238c8d828e0161208e565b975050608061239d8d828e01611d38565b96505060a06123ae8d828e01611d02565b95505060c08b013567ffffffffffffffff8111156123cf576123ce611cb4565b5b6123db8d828e0161208e565b94505060e08b013567ffffffffffffffff8111156123fc576123fb611cb4565b5b6124088d828e0161208e565b93505061010061241a8d828e01611d02565b92505061012061242c8d828e01611d38565b9150509295989b9194979a5092959850565b7f456c656374696f6e206e6f7420737461727465642e2e2e212000000000000000600082015250565b6000612474601983611e52565b915061247f8261243e565b602082019050919050565b600060208201905081810360008301526124a381612467565b9050919050565b7f416c726561647920566f74656400000000000000000000000000000000000000600082015250565b60006124e0600d83611e52565b91506124eb826124aa565b602082019050919050565b6000602082019050818103600083015261250f816124d3565b9050919050565b7f4f7267616e697a65722063616e277420766f7465000000000000000000000000600082015250565b600061254c601483611e52565b915061255782612516565b602082019050919050565b6000602082019050818103600083015261257b8161253f565b9050919050565b7f4e487b7100000000000000000000000000000000000000000000000000000000600052601160045260246000fd5b60006125bc82611d17565b91506125c783611d17565b92508282019050808211156125df576125de612582565b5b92915050565b7f566f7465722068617320766f7465640000000000000000000000000000000000600082015250565b600061261b600f83611e52565b9150612626826125e5565b602082019050919050565b60006040820190506126466000830184611ed7565b81810360208301526126578161260e565b905092915050565b7f456c656374696f6e20686173206e6f7720737461727465640000000000000000600082015250565b6000612695601883611e52565b91506126a08261265f565b602082019050919050565b600060208201905081810360008301526126c481612688565b9050919050565b7f4f6e6c79206f7267616e697a657220616c6c6f77656400000000000000000000600082015250565b6000612701601683611e52565b915061270c826126cb565b602082019050919050565b60006020820190508181036000830152612730816126f4565b9050919050565b7f456c656374696f6e20686173206e6f7720656e64656400000000000000000000600082015250565b600061276d601683611e52565b915061277882612737565b602082019050919050565b6000602082019050818103600083015261279c81612760565b9050919050565b7f4e487b7100000000000000000000000000000000000000000000000000000000600052603260045260246000fd5b7f4e487b7100000000000000000000000000000000000000000000000000000000600052602260045260246000fd5b6000600282049050600182168061281957607f821691505b60208210810361282c5761282b6127d2565b5b50919050565b7f456c656374696f6e206e6f7420456e6465642000000000000000000000000000600082015250565b6000612868601383611e52565b915061287382612832565b602082019050919050565b600060208201905081810360008301526128978161285b565b9050919050565b7f416c726561647920766f74657220657869737473000000000000000000000000600082015250565b60006128d4601483611e52565b91506128df8261289e565b602082019050919050565b60006020820190508181036000830152612903816128c7565b9050919050565b60008190508160005260206000209050919050565b60006020601f8301049050919050565b600082821b905092915050565b60006008830261296c7fffffffffffffffffffffffffffffffffffffffffffffffffffffffffffffffff8261292f565b612976868361292f565b95508019841693508086168417925050509392505050565b6000819050919050565b60006129b36129ae6129a984611d17565b61298e565b611d17565b9050919050565b6000819050919050565b6129cd83612998565b6129e16129d9826129ba565b84845461293c565b825550505050565b600090565b6129f66129e9565b612a018184846129c4565b505050565b5b81811015612a2557612a1a6000826129ee565b600181019050612a07565b5050565b601f821115612a6a57612a3b8161290a565b612a448461291f565b81016020851015612a53578190505b612a67612a5f8561291f565b830182612a06565b50505b505050565b600082821c905092915050565b6000612a8d60001984600802612a6f565b1980831691505092915050565b6000612aa68383612a7c565b9150826002028217905092915050565b612abf82611e47565b67ffffffffffffffff811115612ad857612ad7611f91565b5b612ae28254612801565b612aed828285612a29565b600060209050601f831160018114612b205760008415612b0e578287015190505b612b188582612a9a565b865550612b80565b601f198416612b2e8661290a565b60005b82811015612b5657848901518255600182019150602085019450602081019050612b31565b86831015612b735784890151612b6f601f891682612a7c565b8355505b6001600288020188555050505b505050505050565b7f566f74657220686173206265656e206164646564207375636365737366756c6c60008201527f7900000000000000000000000000000000000000000000000000000000000000602082015250565b6000612be4602183611e52565b9150612bef82612b88565b604082019050919050565b6000604082019050612c0f6000830184611ed7565b8181036020830152612c2081612bd7565b905092915050565b7f416c72656164792063616e646964617465206578697374730000000000000000600082015250565b6000612c5e601883611e52565b9150612c6982612c28565b602082019050919050565b60006020820190508181036000830152612c8d81612c51565b9050919050565b7f43616e64696461746520686173206265656e206164646564207375636365737360008201527f66756c6c79000000000000000000000000000000000000000000000000000000602082015250565b6000612cf0602583611e52565b9150612cfb82612c94565b604082019050919050565b6000604082019050612d1b6000830184611ed7565b8181036020830152612d2c81612ce3565b90509291505056fea2646970667358221220e26eae6f33bc947795be229817826deacdf53a1fcf655eb01c11076123fc428264736f6c63430008130033",
	"linkReferences": {},
	"deployedLinkReferences": {}
}